{
  "contractName": "SintomasDapp",
  "abi": [
    {
      "inputs": [
        {
          "internalType": "string",
          "name": "dolorConccreto",
          "type": "string"
        }
      ],
      "name": "tengoUnSintoma",
      "outputs": [],
      "stateMutability": "nonpayable",
      "type": "function"
    },
    {
      "inputs": [
        {
          "internalType": "uint256",
          "name": "idSintoma",
          "type": "uint256"
        },
        {
          "internalType": "string",
          "name": "tipoRemedio",
          "type": "string"
        },
        {
          "internalType": "string",
          "name": "remedio",
          "type": "string"
        }
      ],
      "name": "tengoRemedio",
      "outputs": [],
      "stateMutability": "nonpayable",
      "type": "function"
    },
    {
      "inputs": [
        {
          "internalType": "uint256",
          "name": "idRemedio",
          "type": "uint256"
        },
        {
          "internalType": "uint8",
          "name": "valoracion",
          "type": "uint8"
        }
      ],
      "name": "valoroRemedio",
      "outputs": [],
      "stateMutability": "nonpayable",
      "type": "function"
    }
  ],
  "bytecode": "0x608060405234801561001057600080fd5b506107bf806100206000396000f3fe608060405234801561001057600080fd5b50600436106100415760003560e01c80632b076f1814610046578063dc07b7d114610081578063ecfcc156146101dd575b600080fd5b61007f6004803603604081101561005c57600080fd5b8101908080359060200190929190803560ff169060200190929190505050610298565b005b6101db6004803603606081101561009757600080fd5b8101908080359060200190929190803590602001906401000000008111156100be57600080fd5b8201836020820111156100d057600080fd5b803590602001918460018302840111640100000000831117156100f257600080fd5b91908080601f016020809104026020016040519081016040528093929190818152602001838380828437600081840152601f19601f8201169050808301925050505050505091929192908035906020019064010000000081111561015557600080fd5b82018360208201111561016757600080fd5b8035906020019184600183028401116401000000008311171561018957600080fd5b91908080601f016020809104026020016040519081016040528093929190818152602001838380828437600081840152601f19601f8201169050808301925050505050505091929192905050506104df565b005b610296600480360360208110156101f357600080fd5b810190808035906020019064010000000081111561021057600080fd5b82018360208201111561022257600080fd5b8035906020019184600183028401116401000000008311171561024457600080fd5b91908080601f016020809104026020016040519081016040528093929190818152602001838380828437600081840152601f19601f82011690508083019250505050505050919291929050505061065b565b005b600454821115610310576040517f08c379a000000000000000000000000000000000000000000000000000000000815260040180806020018281038252601f8152602001807f456c2072656d6564696f20636f6e20657365204944206e6f206578697374650081525060200191505060405180910390fd5b60008160ff16101580156103285750600a8160ff1611155b61037d576040517f08c379a000000000000000000000000000000000000000000000000000000000815260040180806020018281038252602a815260200180610760602a913960400191505060405180910390fd5b8060ff16600160008481526020019081526020016000206005016000828254019250508190555060016000838152602001908152602001600020600601600081548092919060010191905055508060ff16600260006001600086815260200190815260200160002060040160009054906101000a900473ffffffffffffffffffffffffffffffffffffffff1673ffffffffffffffffffffffffffffffffffffffff1673ffffffffffffffffffffffffffffffffffffffff16815260200190815260200160002060010160008282540192505081905550600260006001600085815260200190815260200160002060040160009054906101000a900473ffffffffffffffffffffffffffffffffffffffff1673ffffffffffffffffffffffffffffffffffffffff1673ffffffffffffffffffffffffffffffffffffffff168152602001908152602001600020600201600081548092919060010191905055505050565b600354831115610557576040517f08c379a000000000000000000000000000000000000000000000000000000000815260040180806020018281038252601f8152602001807f456c2073696e746f6d6120636f6e20657365204944206e6f206578697374650081525060200191505060405180910390fd5b6004600081548092919060010191905055506004546001600060045481526020019081526020016000206000018190555082600160006004548152602001908152602001600020600101819055508160016000600454815260200190815260200160002060020190805190602001906105d19291906106ba565b508060016000600454815260200190815260200160002060030190805190602001906105fe9291906106ba565b503360016000600454815260200190815260200160002060040160006101000a81548173ffffffffffffffffffffffffffffffffffffffff021916908373ffffffffffffffffffffffffffffffffffffffff160217905550505050565b60036000815480929190600101919050555060035460008060035481526020019081526020016000206000018190555080600080600354815260200190815260200160002060010190805190602001906106b69291906106ba565b5050565b828054600181600116156101000203166002900490600052602060002090601f016020900481019282601f106106fb57805160ff1916838001178555610729565b82800160010185558215610729579182015b8281111561072857825182559160200191906001019061070d565b5b509050610736919061073a565b5090565b61075c91905b80821115610758576000816000905550600101610740565b5090565b9056fe54752076616c6f726163696f6e207469656e652071756520657374617220656e74726520302079203130a2646970667358221220c2ea5cf6085a47f0e9a325f4b557d2ce74b58ca5b42144b98a2f9a5f183c66fe64736f6c63430006010033",
  "source": "pragma solidity ^0.6.0;\n\ncontract SintomasDapp {\n\n  struct Sintoma {\n    uint idSintoma;\n    string sintoma;\n  }\n\n  struct Remedio {\n    uint idRemedio;\n    uint idSintoma;\n    string tipoRemedio;\n    string remedio;\n    address remediador;\n    uint sumaCalificacionRemedio;\n    uint numeroVotosRemedio;\n  }\n\n  struct Remediador {\n    address remediador;\n    uint sumaCalificacionGlobal;\n    uint numeroVotosGlobal;\n  }\n  \n  mapping (uint => Sintoma) sintomas;\n  mapping (uint => Remedio) remedios;\n  mapping (address => Remediador) remediadores;\n\n  uint ultimoSintomaId;\n  uint ultimoRemedioId;\n\n  function tengoUnSintoma (string memory dolorConccreto) public {\n    ultimoSintomaId++;\n    sintomas[ultimoSintomaId].idSintoma = ultimoSintomaId;\n    sintomas[ultimoSintomaId].sintoma = dolorConccreto;\n  }\n\n  function tengoRemedio (uint idSintoma, string memory tipoRemedio, string memory remedio) public {\n    require(idSintoma <= ultimoSintomaId, \"El sintoma con ese ID no existe\");\n    ultimoRemedioId++;\n    remedios[ultimoRemedioId].idRemedio = ultimoRemedioId;\n    remedios[ultimoRemedioId].idSintoma = idSintoma;\n    remedios[ultimoRemedioId].tipoRemedio = tipoRemedio;\n    remedios[ultimoRemedioId].remedio = remedio;\n    remedios[ultimoRemedioId].remediador = msg.sender;\n  }\n\n  function valoroRemedio (uint idRemedio, uint8 valoracion) public {\n    require(idRemedio <= ultimoRemedioId, \"El remedio con ese ID no existe\");\n    require(valoracion >= 0 && valoracion <= 10, \"Tu valoracion tiene que estar entre 0 y 10\");\n    remedios[idRemedio].sumaCalificacionRemedio += valoracion;\n    remedios[idRemedio].numeroVotosRemedio++;\n    remediadores[remedios[idRemedio].remediador].sumaCalificacionGlobal += valoracion;\n    remediadores[remedios[idRemedio].remediador].numeroVotosGlobal++;\n  }\n  \n\n  /*\n    tipos de remedio: (Vamos a hacer el selector/menu en React)\n    -posturas de yoga.\n    -infusiones.\n    -homeopatia.\n    -otros.\n  */\n\n}\n",
  "sourcePath": "C:/Users/javier.DESKTOP-A38VLJV/SintomasDapp/contracts/SintomasDapp.sol",
  "compiler": {
    "name": "solc",
    "version": "0.6.1+commit.e6f7d5a4.Emscripten.clang"
  },
  "schemaVersion": "3.0.20",
  "updatedAt": "2020-01-14T19:27:57.754Z",
  "devdoc": {
    "methods": {}
  },
  "userdoc": {
    "methods": {}
  }
}