{
  "contractName": "SintomasDapp",
  "abi": [
    {
      "inputs": [
        {
          "internalType": "address",
          "name": "",
          "type": "address"
        }
      ],
      "name": "remediadores",
      "outputs": [
        {
          "internalType": "address",
          "name": "remediador",
          "type": "address"
        },
        {
          "internalType": "uint256",
          "name": "sumaCalificacionGlobal",
          "type": "uint256"
        },
        {
          "internalType": "uint256",
          "name": "numeroVotosGlobal",
          "type": "uint256"
        }
      ],
      "stateMutability": "view",
      "type": "function",
      "constant": true
    },
    {
      "inputs": [
        {
          "internalType": "uint256",
          "name": "",
          "type": "uint256"
        }
      ],
      "name": "remedios",
      "outputs": [
        {
          "internalType": "uint256",
          "name": "idRemedio",
          "type": "uint256"
        },
        {
          "internalType": "uint256",
          "name": "idSintoma",
          "type": "uint256"
        },
        {
          "internalType": "string",
          "name": "tipoRemedio",
          "type": "string"
        },
        {
          "internalType": "string",
          "name": "remedio",
          "type": "string"
        },
        {
          "internalType": "address",
          "name": "remediador",
          "type": "address"
        },
        {
          "internalType": "uint256",
          "name": "sumaCalificacionRemedio",
          "type": "uint256"
        },
        {
          "internalType": "uint256",
          "name": "numeroVotosRemedio",
          "type": "uint256"
        }
      ],
      "stateMutability": "view",
      "type": "function",
      "constant": true
    },
    {
      "inputs": [
        {
          "internalType": "uint256",
          "name": "",
          "type": "uint256"
        }
      ],
      "name": "sintomas",
      "outputs": [
        {
          "internalType": "uint256",
          "name": "idSintoma",
          "type": "uint256"
        },
        {
          "internalType": "string",
          "name": "sintoma",
          "type": "string"
        }
      ],
      "stateMutability": "view",
      "type": "function",
      "constant": true
    },
    {
      "inputs": [],
      "name": "ultimoRemedioId",
      "outputs": [
        {
          "internalType": "uint256",
          "name": "",
          "type": "uint256"
        }
      ],
      "stateMutability": "view",
      "type": "function",
      "constant": true
    },
    {
      "inputs": [],
      "name": "ultimoSintomaId",
      "outputs": [
        {
          "internalType": "uint256",
          "name": "",
          "type": "uint256"
        }
      ],
      "stateMutability": "view",
      "type": "function",
      "constant": true
    },
    {
      "inputs": [
        {
          "internalType": "string",
          "name": "dolorConcreto",
          "type": "string"
        }
      ],
      "name": "tengoUnSintoma",
      "outputs": [],
      "stateMutability": "nonpayable",
      "type": "function"
    },
    {
      "inputs": [
        {
          "internalType": "uint256",
          "name": "idSintoma",
          "type": "uint256"
        },
        {
          "internalType": "string",
          "name": "tipoRemedio",
          "type": "string"
        },
        {
          "internalType": "string",
          "name": "remedio",
          "type": "string"
        }
      ],
      "name": "tengoRemedio",
      "outputs": [],
      "stateMutability": "nonpayable",
      "type": "function"
    },
    {
      "inputs": [
        {
          "internalType": "uint256",
          "name": "idRemedio",
          "type": "uint256"
        },
        {
          "internalType": "uint8",
          "name": "valoracion",
          "type": "uint8"
        }
      ],
      "name": "valoroRemedio",
      "outputs": [],
      "stateMutability": "nonpayable",
      "type": "function"
    }
  ],
  "bytecode": "0x608060405234801561001057600080fd5b50610d88806100206000396000f3fe608060405234801561001057600080fd5b50600436106100885760003560e01c80638e1b82da1161005b5780638e1b82da146102f6578063dc07b7d114610314578063ecfcc15614610470578063fc11bc2c1461052b57610088565b80631cbf7bf01461008d5780632b076f181461013b578063503194451461017657806372e5402514610194575b600080fd5b6100b9600480360360208110156100a357600080fd5b81019080803590602001909291905050506105bd565b6040518083815260200180602001828103825283818151815260200191508051906020019080838360005b838110156100ff5780820151818401526020810190506100e4565b50505050905090810190601f16801561012c5780820380516001836020036101000a031916815260200191505b50935050505060405180910390f35b6101746004803603604081101561015157600080fd5b8101908080359060200190929190803560ff169060200190929190505050610679565b005b61017e6108c0565b6040518082815260200191505060405180910390f35b6101c0600480360360208110156101aa57600080fd5b81019080803590602001909291905050506108c6565b6040518088815260200187815260200180602001806020018673ffffffffffffffffffffffffffffffffffffffff1673ffffffffffffffffffffffffffffffffffffffff168152602001858152602001848152602001838103835288818151815260200191508051906020019080838360005b8381101561024e578082015181840152602081019050610233565b50505050905090810190601f16801561027b5780820380516001836020036101000a031916815260200191505b50838103825287818151815260200191508051906020019080838360005b838110156102b4578082015181840152602081019050610299565b50505050905090810190601f1680156102e15780820380516001836020036101000a031916815260200191505b50995050505050505050505060405180910390f35b6102fe610a58565b6040518082815260200191505060405180910390f35b61046e6004803603606081101561032a57600080fd5b81019080803590602001909291908035906020019064010000000081111561035157600080fd5b82018360208201111561036357600080fd5b8035906020019184600183028401116401000000008311171561038557600080fd5b91908080601f016020809104026020016040519081016040528093929190818152602001838380828437600081840152601f19601f820116905080830192505050505050509192919290803590602001906401000000008111156103e857600080fd5b8201836020820111156103fa57600080fd5b8035906020019184600183028401116401000000008311171561041c57600080fd5b91908080601f016020809104026020016040519081016040528093929190818152602001838380828437600081840152601f19601f820116905080830192505050505050509192919290505050610a5e565b005b6105296004803603602081101561048657600080fd5b81019080803590602001906401000000008111156104a357600080fd5b8201836020820111156104b557600080fd5b803590602001918460018302840111640100000000831117156104d757600080fd5b91908080601f016020809104026020016040519081016040528093929190818152602001838380828437600081840152601f19601f820116905080830192505050505050509192919290505050610bda565b005b61056d6004803603602081101561054157600080fd5b81019080803573ffffffffffffffffffffffffffffffffffffffff169060200190929190505050610c39565b604051808473ffffffffffffffffffffffffffffffffffffffff1673ffffffffffffffffffffffffffffffffffffffff168152602001838152602001828152602001935050505060405180910390f35b6000602052806000526040600020600091509050806000015490806001018054600181600116156101000203166002900480601f01602080910402602001604051908101604052809291908181526020018280546001816001161561010002031660029004801561066f5780601f106106445761010080835404028352916020019161066f565b820191906000526020600020905b81548152906001019060200180831161065257829003601f168201915b5050505050905082565b6004548211156106f1576040517f08c379a000000000000000000000000000000000000000000000000000000000815260040180806020018281038252601f8152602001807f456c2072656d6564696f20636f6e20657365204944206e6f206578697374650081525060200191505060405180910390fd5b60008160ff16101580156107095750600a8160ff1611155b61075e576040517f08c379a000000000000000000000000000000000000000000000000000000000815260040180806020018281038252602a815260200180610d29602a913960400191505060405180910390fd5b8060ff16600160008481526020019081526020016000206005016000828254019250508190555060016000838152602001908152602001600020600601600081548092919060010191905055508060ff16600260006001600086815260200190815260200160002060040160009054906101000a900473ffffffffffffffffffffffffffffffffffffffff1673ffffffffffffffffffffffffffffffffffffffff1673ffffffffffffffffffffffffffffffffffffffff16815260200190815260200160002060010160008282540192505081905550600260006001600085815260200190815260200160002060040160009054906101000a900473ffffffffffffffffffffffffffffffffffffffff1673ffffffffffffffffffffffffffffffffffffffff1673ffffffffffffffffffffffffffffffffffffffff168152602001908152602001600020600201600081548092919060010191905055505050565b60035481565b6001602052806000526040600020600091509050806000015490806001015490806002018054600181600116156101000203166002900480601f01602080910402602001604051908101604052809291908181526020018280546001816001161561010002031660029004801561097e5780601f106109535761010080835404028352916020019161097e565b820191906000526020600020905b81548152906001019060200180831161096157829003601f168201915b505050505090806003018054600181600116156101000203166002900480601f016020809104026020016040519081016040528092919081815260200182805460018160011615610100020316600290048015610a1c5780601f106109f157610100808354040283529160200191610a1c565b820191906000526020600020905b8154815290600101906020018083116109ff57829003601f168201915b5050505050908060040160009054906101000a900473ffffffffffffffffffffffffffffffffffffffff16908060050154908060060154905087565b60045481565b600354831115610ad6576040517f08c379a000000000000000000000000000000000000000000000000000000000815260040180806020018281038252601f8152602001807f456c2073696e746f6d6120636f6e20657365204944206e6f206578697374650081525060200191505060405180910390fd5b600460008154809291906001019190505550600454600160006004548152602001908152602001600020600001819055508260016000600454815260200190815260200160002060010181905550816001600060045481526020019081526020016000206002019080519060200190610b50929190610c83565b50806001600060045481526020019081526020016000206003019080519060200190610b7d929190610c83565b503360016000600454815260200190815260200160002060040160006101000a81548173ffffffffffffffffffffffffffffffffffffffff021916908373ffffffffffffffffffffffffffffffffffffffff160217905550505050565b6003600081548092919060010191905055506003546000806003548152602001908152602001600020600001819055508060008060035481526020019081526020016000206001019080519060200190610c35929190610c83565b5050565b60026020528060005260406000206000915090508060000160009054906101000a900473ffffffffffffffffffffffffffffffffffffffff16908060010154908060020154905083565b828054600181600116156101000203166002900490600052602060002090601f016020900481019282601f10610cc457805160ff1916838001178555610cf2565b82800160010185558215610cf2579182015b82811115610cf1578251825591602001919060010190610cd6565b5b509050610cff9190610d03565b5090565b610d2591905b80821115610d21576000816000905550600101610d09565b5090565b9056fe54752076616c6f726163696f6e207469656e652071756520657374617220656e74726520302079203130a26469706673582212205304815e2f982d1b5bdfb77e2fb07c8f8d1250b35f9364e999888e8dfdf2c77764736f6c63430006020033",
  "source": "pragma solidity ^0.6.0;\n\ncontract SintomasDapp {\n\n  struct Sintoma {\n    uint idSintoma;\n    string sintoma;\n  }\n\n  struct Remedio {\n    uint idRemedio;\n    uint idSintoma;\n    string tipoRemedio;\n    string remedio;\n    address remediador;\n    uint sumaCalificacionRemedio;\n    uint numeroVotosRemedio;\n  }\n\n  struct Remediador {\n    address remediador;\n    uint sumaCalificacionGlobal;\n    uint numeroVotosGlobal;\n  }\n  \n  mapping (uint => Sintoma) public sintomas;\n  mapping (uint => Remedio) public remedios;\n  mapping (address => Remediador) public remediadores;\n\n  uint public ultimoSintomaId;\n  uint public ultimoRemedioId;\n\n  function tengoUnSintoma (string memory dolorConcreto) public {\n    ultimoSintomaId++;\n    sintomas[ultimoSintomaId].idSintoma = ultimoSintomaId;\n    sintomas[ultimoSintomaId].sintoma = dolorConcreto;\n  }\n\n  function tengoRemedio (uint idSintoma, string memory tipoRemedio, string memory remedio) public {\n    require(idSintoma <= ultimoSintomaId, \"El sintoma con ese ID no existe\");\n    ultimoRemedioId++;\n    remedios[ultimoRemedioId].idRemedio = ultimoRemedioId;\n    remedios[ultimoRemedioId].idSintoma = idSintoma;\n    remedios[ultimoRemedioId].tipoRemedio = tipoRemedio;\n    remedios[ultimoRemedioId].remedio = remedio;\n    remedios[ultimoRemedioId].remediador = msg.sender;\n  }\n\n  function valoroRemedio (uint idRemedio, uint8 valoracion) public {\n    require(idRemedio <= ultimoRemedioId, \"El remedio con ese ID no existe\");\n    require(valoracion >= 0 && valoracion <= 10, \"Tu valoracion tiene que estar entre 0 y 10\");\n    remedios[idRemedio].sumaCalificacionRemedio += valoracion;\n    remedios[idRemedio].numeroVotosRemedio++;\n    remediadores[remedios[idRemedio].remediador].sumaCalificacionGlobal += valoracion;\n    remediadores[remedios[idRemedio].remediador].numeroVotosGlobal++;\n  }\n}\n",
  "sourcePath": "C:/Users/javier.DESKTOP-A38VLJV/SintomasDapp/contracts/SintomasDapp.sol",
  "compiler": {
    "name": "solc",
    "version": "0.6.2+commit.bacdbe57.Emscripten.clang"
  },
  "schemaVersion": "3.0.20",
  "updatedAt": "2020-02-17T18:43:13.596Z",
  "networkType": "ethereum",
  "devdoc": {
    "methods": {}
  },
  "userdoc": {
    "methods": {}
  }
}